{
  "_format": "hh-sol-artifact-1",
  "contractName": "LiquidityAdderETH",
  "sourceName": "contracts/addLiquidityETH.sol",
  "abi": [
    {
      "inputs": [
        {
          "internalType": "address",
          "name": "_router",
          "type": "address"
        },
        {
          "internalType": "address",
          "name": "_wethAddress",
          "type": "address"
        }
      ],
      "stateMutability": "nonpayable",
      "type": "constructor"
    },
    {
      "inputs": [
        {
          "internalType": "address",
          "name": "token",
          "type": "address"
        },
        {
          "internalType": "uint256",
          "name": "amountTokenDesired",
          "type": "uint256"
        },
        {
          "internalType": "uint256",
          "name": "amountTokenMin",
          "type": "uint256"
        },
        {
          "internalType": "uint256",
          "name": "amountETHMin",
          "type": "uint256"
        },
        {
          "internalType": "address",
          "name": "to",
          "type": "address"
        },
        {
          "internalType": "uint256",
          "name": "deadline",
          "type": "uint256"
        }
      ],
      "name": "addLiquidityETH",
      "outputs": [],
      "stateMutability": "payable",
      "type": "function"
    },
    {
      "inputs": [],
      "name": "uniswapRouter",
      "outputs": [
        {
          "internalType": "contract IUniswapV2Router02",
          "name": "",
          "type": "address"
        }
      ],
      "stateMutability": "view",
      "type": "function"
    },
    {
      "inputs": [],
      "name": "wethAddress",
      "outputs": [
        {
          "internalType": "address",
          "name": "",
          "type": "address"
        }
      ],
      "stateMutability": "view",
      "type": "function"
    },
    {
      "stateMutability": "payable",
      "type": "receive"
    }
  ],
  "bytecode": "0x608060405234801561001057600080fd5b5060405161076a38038061076a8339818101604052810190610032919061015e565b336000806101000a81548173ffffffffffffffffffffffffffffffffffffffff021916908373ffffffffffffffffffffffffffffffffffffffff16021790555081600160006101000a81548173ffffffffffffffffffffffffffffffffffffffff021916908373ffffffffffffffffffffffffffffffffffffffff16021790555080600260006101000a81548173ffffffffffffffffffffffffffffffffffffffff021916908373ffffffffffffffffffffffffffffffffffffffff160217905550505061019e565b600080fd5b600073ffffffffffffffffffffffffffffffffffffffff82169050919050565b600061012b82610100565b9050919050565b61013b81610120565b811461014657600080fd5b50565b60008151905061015881610132565b92915050565b60008060408385031215610175576101746100fb565b5b600061018385828601610149565b925050602061019485828601610149565b9150509250929050565b6105bd806101ad6000396000f3fe6080604052600436106100385760003560e01c80634f0e0ef314610044578063735de9f71461006f578063f305d7191461009a5761003f565b3661003f57005b600080fd5b34801561005057600080fd5b506100596100b6565b6040516100669190610298565b60405180910390f35b34801561007b57600080fd5b506100846100dc565b6040516100919190610312565b60405180910390f35b6100b460048036038101906100af9190610394565b610102565b005b600260009054906101000a900473ffffffffffffffffffffffffffffffffffffffff1681565b600160009054906101000a900473ffffffffffffffffffffffffffffffffffffffff1681565b8573ffffffffffffffffffffffffffffffffffffffff1663095ea7b3600160009054906101000a900473ffffffffffffffffffffffffffffffffffffffff16876040518363ffffffff1660e01b815260040161015f929190610430565b6020604051808303816000875af115801561017e573d6000803e3d6000fd5b505050506040513d601f19601f820116820180604052508101906101a29190610491565b50600160009054906101000a900473ffffffffffffffffffffffffffffffffffffffff1673ffffffffffffffffffffffffffffffffffffffff1663f305d719348888888888886040518863ffffffff1660e01b8152600401610209969594939291906104be565b60606040518083038185885af1158015610227573d6000803e3d6000fd5b50505050506040513d601f19601f8201168201806040525081019061024c9190610534565b505050505050505050565b600073ffffffffffffffffffffffffffffffffffffffff82169050919050565b600061028282610257565b9050919050565b61029281610277565b82525050565b60006020820190506102ad6000830184610289565b92915050565b6000819050919050565b60006102d86102d36102ce84610257565b6102b3565b610257565b9050919050565b60006102ea826102bd565b9050919050565b60006102fc826102df565b9050919050565b61030c816102f1565b82525050565b60006020820190506103276000830184610303565b92915050565b600080fd5b61033b81610277565b811461034657600080fd5b50565b60008135905061035881610332565b92915050565b6000819050919050565b6103718161035e565b811461037c57600080fd5b50565b60008135905061038e81610368565b92915050565b60008060008060008060c087890312156103b1576103b061032d565b5b60006103bf89828a01610349565b96505060206103d089828a0161037f565b95505060406103e189828a0161037f565b94505060606103f289828a0161037f565b935050608061040389828a01610349565b92505060a061041489828a0161037f565b9150509295509295509295565b61042a8161035e565b82525050565b60006040820190506104456000830185610289565b6104526020830184610421565b9392505050565b60008115159050919050565b61046e81610459565b811461047957600080fd5b50565b60008151905061048b81610465565b92915050565b6000602082840312156104a7576104a661032d565b5b60006104b58482850161047c565b91505092915050565b600060c0820190506104d36000830189610289565b6104e06020830188610421565b6104ed6040830187610421565b6104fa6060830186610421565b6105076080830185610289565b61051460a0830184610421565b979650505050505050565b60008151905061052e81610368565b92915050565b60008060006060848603121561054d5761054c61032d565b5b600061055b8682870161051f565b935050602061056c8682870161051f565b925050604061057d8682870161051f565b915050925092509256fea26469706673582212209aac8baf98b76253d81f8c933d4299f48192dab6468cea92c5fae65562cc252964736f6c63430008140033",
  "linkReferences": {},
  "deployedLinkReferences": {}
}