{
  "_format": "hh-sol-artifact-1",
  "contractName": "LiquidityAdder",
  "sourceName": "contracts/addLiquidity.sol",
  "abi": [
    {
      "inputs": [
        {
          "internalType": "address",
          "name": "_routerAddress",
          "type": "address"
        },
        {
          "internalType": "address",
          "name": "_token1",
          "type": "address"
        },
        {
          "internalType": "address",
          "name": "_token2",
          "type": "address"
        }
      ],
      "stateMutability": "nonpayable",
      "type": "constructor"
    },
    {
      "inputs": [
        {
          "internalType": "uint256",
          "name": "amountToken1",
          "type": "uint256"
        },
        {
          "internalType": "uint256",
          "name": "amountToken2",
          "type": "uint256"
        }
      ],
      "name": "addLiquidity",
      "outputs": [],
      "stateMutability": "nonpayable",
      "type": "function"
    },
    {
      "inputs": [],
      "name": "token1",
      "outputs": [
        {
          "internalType": "address",
          "name": "",
          "type": "address"
        }
      ],
      "stateMutability": "view",
      "type": "function"
    },
    {
      "inputs": [],
      "name": "token2",
      "outputs": [
        {
          "internalType": "address",
          "name": "",
          "type": "address"
        }
      ],
      "stateMutability": "view",
      "type": "function"
    },
    {
      "inputs": [],
      "name": "uniswapPair",
      "outputs": [
        {
          "internalType": "contract IUniswapV2Pair",
          "name": "",
          "type": "address"
        }
      ],
      "stateMutability": "view",
      "type": "function"
    },
    {
      "inputs": [],
      "name": "uniswapRouter",
      "outputs": [
        {
          "internalType": "contract IUniswapV2Router02",
          "name": "",
          "type": "address"
        }
      ],
      "stateMutability": "view",
      "type": "function"
    }
  ],
  "bytecode": "0x60806040523480156200001157600080fd5b5060405162000ef938038062000ef983398181016040528101906200003791906200016c565b826000806101000a81548173ffffffffffffffffffffffffffffffffffffffff021916908373ffffffffffffffffffffffffffffffffffffffff16021790555081600260006101000a81548173ffffffffffffffffffffffffffffffffffffffff021916908373ffffffffffffffffffffffffffffffffffffffff16021790555080600360006101000a81548173ffffffffffffffffffffffffffffffffffffffff021916908373ffffffffffffffffffffffffffffffffffffffff160217905550505050620001c8565b600080fd5b600073ffffffffffffffffffffffffffffffffffffffff82169050919050565b6000620001348262000107565b9050919050565b620001468162000127565b81146200015257600080fd5b50565b60008151905062000166816200013b565b92915050565b60008060006060848603121562000188576200018762000102565b5b6000620001988682870162000155565b9350506020620001ab8682870162000155565b9250506040620001be8682870162000155565b9150509250925092565b610d2180620001d86000396000f3fe608060405234801561001057600080fd5b50600436106100575760003560e01c806325be124e1461005c578063735de9f71461007a5780639cd441da14610098578063c816841b146100b4578063d21220a7146100d2575b600080fd5b6100646100f0565b6040516100719190610712565b60405180910390f35b610082610116565b60405161008f919061078c565b60405180910390f35b6100b260048036038101906100ad91906107e2565b61013a565b005b6100bc610685565b6040516100c99190610843565b60405180910390f35b6100da6106ab565b6040516100e79190610712565b60405180910390f35b600360009054906101000a900473ffffffffffffffffffffffffffffffffffffffff1681565b60008054906101000a900473ffffffffffffffffffffffffffffffffffffffff1681565b600260009054906101000a900473ffffffffffffffffffffffffffffffffffffffff1673ffffffffffffffffffffffffffffffffffffffff1663095ea7b360008054906101000a900473ffffffffffffffffffffffffffffffffffffffff16846040518363ffffffff1660e01b81526004016101b792919061086d565b6020604051808303816000875af11580156101d6573d6000803e3d6000fd5b505050506040513d601f19601f820116820180604052508101906101fa91906108ce565b50600360009054906101000a900473ffffffffffffffffffffffffffffffffffffffff1673ffffffffffffffffffffffffffffffffffffffff1663095ea7b360008054906101000a900473ffffffffffffffffffffffffffffffffffffffff16836040518363ffffffff1660e01b815260040161027892919061086d565b6020604051808303816000875af1158015610297573d6000803e3d6000fd5b505050506040513d601f19601f820116820180604052508101906102bb91906108ce565b5081600260009054906101000a900473ffffffffffffffffffffffffffffffffffffffff1673ffffffffffffffffffffffffffffffffffffffff1663dd62ed3e3060008054906101000a900473ffffffffffffffffffffffffffffffffffffffff166040518363ffffffff1660e01b815260040161033a9291906108fb565b602060405180830381865afa158015610357573d6000803e3d6000fd5b505050506040513d601f19601f8201168201806040525081019061037b9190610939565b10156103bc576040517f08c379a00000000000000000000000000000000000000000000000000000000081526004016103b3906109e9565b60405180910390fd5b80600360009054906101000a900473ffffffffffffffffffffffffffffffffffffffff1673ffffffffffffffffffffffffffffffffffffffff1663dd62ed3e3060008054906101000a900473ffffffffffffffffffffffffffffffffffffffff166040518363ffffffff1660e01b815260040161043a9291906108fb565b602060405180830381865afa158015610457573d6000803e3d6000fd5b505050506040513d601f19601f8201168201806040525081019061047b9190610939565b10156104bc576040517f08c379a00000000000000000000000000000000000000000000000000000000081526004016104b390610a7b565b60405180910390fd5b60008060008060009054906101000a900473ffffffffffffffffffffffffffffffffffffffff1673ffffffffffffffffffffffffffffffffffffffff1663e8e33700600260009054906101000a900473ffffffffffffffffffffffffffffffffffffffff16600360009054906101000a900473ffffffffffffffffffffffffffffffffffffffff16888860018030426040518963ffffffff1660e01b815260040161056e989796959493929190610ad6565b6060604051808303816000875af115801561058d573d6000803e3d6000fd5b505050506040513d601f19601f820116820180604052508101906105b19190610b54565b9250925092508483146105f9576040517f08c379a00000000000000000000000000000000000000000000000000000000081526004016105f090610bf3565b60405180910390fd5b83821461063b576040517f08c379a000000000000000000000000000000000000000000000000000000000815260040161063290610c5f565b60405180910390fd5b6000811161067e576040517f08c379a000000000000000000000000000000000000000000000000000000000815260040161067590610ccb565b60405180910390fd5b5050505050565b600160009054906101000a900473ffffffffffffffffffffffffffffffffffffffff1681565b600260009054906101000a900473ffffffffffffffffffffffffffffffffffffffff1681565b600073ffffffffffffffffffffffffffffffffffffffff82169050919050565b60006106fc826106d1565b9050919050565b61070c816106f1565b82525050565b60006020820190506107276000830184610703565b92915050565b6000819050919050565b600061075261074d610748846106d1565b61072d565b6106d1565b9050919050565b600061076482610737565b9050919050565b600061077682610759565b9050919050565b6107868161076b565b82525050565b60006020820190506107a1600083018461077d565b92915050565b600080fd5b6000819050919050565b6107bf816107ac565b81146107ca57600080fd5b50565b6000813590506107dc816107b6565b92915050565b600080604083850312156107f9576107f86107a7565b5b6000610807858286016107cd565b9250506020610818858286016107cd565b9150509250929050565b600061082d82610759565b9050919050565b61083d81610822565b82525050565b60006020820190506108586000830184610834565b92915050565b610867816107ac565b82525050565b60006040820190506108826000830185610703565b61088f602083018461085e565b9392505050565b60008115159050919050565b6108ab81610896565b81146108b657600080fd5b50565b6000815190506108c8816108a2565b92915050565b6000602082840312156108e4576108e36107a7565b5b60006108f2848285016108b9565b91505092915050565b60006040820190506109106000830185610703565b61091d6020830184610703565b9392505050565b600081519050610933816107b6565b92915050565b60006020828403121561094f5761094e6107a7565b5b600061095d84828501610924565b91505092915050565b600082825260208201905092915050565b7f496e73756666696369656e7420616c6c6f77616e636520666f7220746f6b656e60008201527f3100000000000000000000000000000000000000000000000000000000000000602082015250565b60006109d3602183610966565b91506109de82610977565b604082019050919050565b60006020820190508181036000830152610a02816109c6565b9050919050565b7f496e73756666696369656e7420616c6c6f77616e636520666f7220746f6b656e60008201527f3200000000000000000000000000000000000000000000000000000000000000602082015250565b6000610a65602183610966565b9150610a7082610a09565b604082019050919050565b60006020820190508181036000830152610a9481610a58565b9050919050565b6000819050919050565b6000610ac0610abb610ab684610a9b565b61072d565b6107ac565b9050919050565b610ad081610aa5565b82525050565b600061010082019050610aec600083018b610703565b610af9602083018a610703565b610b06604083018961085e565b610b13606083018861085e565b610b206080830187610ac7565b610b2d60a0830186610ac7565b610b3a60c0830185610703565b610b4760e083018461085e565b9998505050505050505050565b600080600060608486031215610b6d57610b6c6107a7565b5b6000610b7b86828701610924565b9350506020610b8c86828701610924565b9250506040610b9d86828701610924565b9150509250925092565b7f496e636f727265637420616d6f756e74206f6620746f6b656e31207573656400600082015250565b6000610bdd601f83610966565b9150610be882610ba7565b602082019050919050565b60006020820190508181036000830152610c0c81610bd0565b9050919050565b7f496e636f727265637420616d6f756e74206f6620746f6b656e32207573656400600082015250565b6000610c49601f83610966565b9150610c5482610c13565b602082019050919050565b60006020820190508181036000830152610c7881610c3c565b9050919050565b7f4e6f206c69717569646974792063726561746564000000000000000000000000600082015250565b6000610cb5601483610966565b9150610cc082610c7f565b602082019050919050565b60006020820190508181036000830152610ce481610ca8565b905091905056fea264697066735822122059e1cc49948676b470be524e50a0e6e5ef662e9df3a9a70f0ebc3d0c55d0825364736f6c63430008140033",
  "linkReferences": {},
  "deployedLinkReferences": {}
}