{
  "_format": "hh-sol-artifact-1",
  "contractName": "MyContract2024",
  "sourceName": "contracts/Web3Token.sol",
  "abi": [
    {
      "inputs": [
        {
          "internalType": "string",
          "name": "name",
          "type": "string"
        },
        {
          "internalType": "string",
          "name": "symbol",
          "type": "string"
        },
        {
          "internalType": "uint8",
          "name": "decimals",
          "type": "uint8"
        }
      ],
      "stateMutability": "nonpayable",
      "type": "constructor"
    },
    {
      "inputs": [],
      "name": "ECDSAInvalidSignature",
      "type": "error"
    },
    {
      "inputs": [
        {
          "internalType": "uint256",
          "name": "length",
          "type": "uint256"
        }
      ],
      "name": "ECDSAInvalidSignatureLength",
      "type": "error"
    },
    {
      "inputs": [
        {
          "internalType": "bytes32",
          "name": "s",
          "type": "bytes32"
        }
      ],
      "name": "ECDSAInvalidSignatureS",
      "type": "error"
    },
    {
      "inputs": [
        {
          "internalType": "address",
          "name": "spender",
          "type": "address"
        },
        {
          "internalType": "uint256",
          "name": "allowance",
          "type": "uint256"
        },
        {
          "internalType": "uint256",
          "name": "needed",
          "type": "uint256"
        }
      ],
      "name": "ERC20InsufficientAllowance",
      "type": "error"
    },
    {
      "inputs": [
        {
          "internalType": "address",
          "name": "sender",
          "type": "address"
        },
        {
          "internalType": "uint256",
          "name": "balance",
          "type": "uint256"
        },
        {
          "internalType": "uint256",
          "name": "needed",
          "type": "uint256"
        }
      ],
      "name": "ERC20InsufficientBalance",
      "type": "error"
    },
    {
      "inputs": [
        {
          "internalType": "address",
          "name": "approver",
          "type": "address"
        }
      ],
      "name": "ERC20InvalidApprover",
      "type": "error"
    },
    {
      "inputs": [
        {
          "internalType": "address",
          "name": "receiver",
          "type": "address"
        }
      ],
      "name": "ERC20InvalidReceiver",
      "type": "error"
    },
    {
      "inputs": [
        {
          "internalType": "address",
          "name": "sender",
          "type": "address"
        }
      ],
      "name": "ERC20InvalidSender",
      "type": "error"
    },
    {
      "inputs": [
        {
          "internalType": "address",
          "name": "spender",
          "type": "address"
        }
      ],
      "name": "ERC20InvalidSpender",
      "type": "error"
    },
    {
      "inputs": [
        {
          "internalType": "uint256",
          "name": "deadline",
          "type": "uint256"
        }
      ],
      "name": "ERC2612ExpiredSignature",
      "type": "error"
    },
    {
      "inputs": [
        {
          "internalType": "address",
          "name": "signer",
          "type": "address"
        },
        {
          "internalType": "address",
          "name": "owner",
          "type": "address"
        }
      ],
      "name": "ERC2612InvalidSigner",
      "type": "error"
    },
    {
      "inputs": [
        {
          "internalType": "address",
          "name": "account",
          "type": "address"
        },
        {
          "internalType": "uint256",
          "name": "currentNonce",
          "type": "uint256"
        }
      ],
      "name": "InvalidAccountNonce",
      "type": "error"
    },
    {
      "inputs": [],
      "name": "InvalidShortString",
      "type": "error"
    },
    {
      "inputs": [
        {
          "internalType": "string",
          "name": "str",
          "type": "string"
        }
      ],
      "name": "StringTooLong",
      "type": "error"
    },
    {
      "anonymous": false,
      "inputs": [
        {
          "indexed": true,
          "internalType": "address",
          "name": "owner",
          "type": "address"
        },
        {
          "indexed": true,
          "internalType": "address",
          "name": "spender",
          "type": "address"
        },
        {
          "indexed": false,
          "internalType": "uint256",
          "name": "value",
          "type": "uint256"
        }
      ],
      "name": "Approval",
      "type": "event"
    },
    {
      "anonymous": false,
      "inputs": [],
      "name": "EIP712DomainChanged",
      "type": "event"
    },
    {
      "anonymous": false,
      "inputs": [
        {
          "indexed": true,
          "internalType": "address",
          "name": "from",
          "type": "address"
        },
        {
          "indexed": true,
          "internalType": "address",
          "name": "to",
          "type": "address"
        },
        {
          "indexed": false,
          "internalType": "uint256",
          "name": "value",
          "type": "uint256"
        }
      ],
      "name": "Transfer",
      "type": "event"
    },
    {
      "inputs": [],
      "name": "DOMAIN_SEPARATOR",
      "outputs": [
        {
          "internalType": "bytes32",
          "name": "",
          "type": "bytes32"
        }
      ],
      "stateMutability": "view",
      "type": "function"
    },
    {
      "inputs": [
        {
          "internalType": "address",
          "name": "owner",
          "type": "address"
        },
        {
          "internalType": "address",
          "name": "spender",
          "type": "address"
        }
      ],
      "name": "allowance",
      "outputs": [
        {
          "internalType": "uint256",
          "name": "",
          "type": "uint256"
        }
      ],
      "stateMutability": "view",
      "type": "function"
    },
    {
      "inputs": [
        {
          "internalType": "address",
          "name": "spender",
          "type": "address"
        },
        {
          "internalType": "uint256",
          "name": "value",
          "type": "uint256"
        }
      ],
      "name": "approve",
      "outputs": [
        {
          "internalType": "bool",
          "name": "",
          "type": "bool"
        }
      ],
      "stateMutability": "nonpayable",
      "type": "function"
    },
    {
      "inputs": [
        {
          "internalType": "address",
          "name": "account",
          "type": "address"
        }
      ],
      "name": "balanceOf",
      "outputs": [
        {
          "internalType": "uint256",
          "name": "",
          "type": "uint256"
        }
      ],
      "stateMutability": "view",
      "type": "function"
    },
    {
      "inputs": [],
      "name": "decimals",
      "outputs": [
        {
          "internalType": "uint8",
          "name": "",
          "type": "uint8"
        }
      ],
      "stateMutability": "view",
      "type": "function"
    },
    {
      "inputs": [],
      "name": "eip712Domain",
      "outputs": [
        {
          "internalType": "bytes1",
          "name": "fields",
          "type": "bytes1"
        },
        {
          "internalType": "string",
          "name": "name",
          "type": "string"
        },
        {
          "internalType": "string",
          "name": "version",
          "type": "string"
        },
        {
          "internalType": "uint256",
          "name": "chainId",
          "type": "uint256"
        },
        {
          "internalType": "address",
          "name": "verifyingContract",
          "type": "address"
        },
        {
          "internalType": "bytes32",
          "name": "salt",
          "type": "bytes32"
        },
        {
          "internalType": "uint256[]",
          "name": "extensions",
          "type": "uint256[]"
        }
      ],
      "stateMutability": "view",
      "type": "function"
    },
    {
      "inputs": [],
      "name": "initialSupply",
      "outputs": [
        {
          "internalType": "uint256",
          "name": "",
          "type": "uint256"
        }
      ],
      "stateMutability": "view",
      "type": "function"
    },
    {
      "inputs": [],
      "name": "name",
      "outputs": [
        {
          "internalType": "string",
          "name": "",
          "type": "string"
        }
      ],
      "stateMutability": "view",
      "type": "function"
    },
    {
      "inputs": [
        {
          "internalType": "address",
          "name": "owner",
          "type": "address"
        }
      ],
      "name": "nonces",
      "outputs": [
        {
          "internalType": "uint256",
          "name": "",
          "type": "uint256"
        }
      ],
      "stateMutability": "view",
      "type": "function"
    },
    {
      "inputs": [
        {
          "internalType": "address",
          "name": "owner",
          "type": "address"
        },
        {
          "internalType": "address",
          "name": "spender",
          "type": "address"
        },
        {
          "internalType": "uint256",
          "name": "value",
          "type": "uint256"
        },
        {
          "internalType": "uint256",
          "name": "deadline",
          "type": "uint256"
        },
        {
          "internalType": "uint8",
          "name": "v",
          "type": "uint8"
        },
        {
          "internalType": "bytes32",
          "name": "r",
          "type": "bytes32"
        },
        {
          "internalType": "bytes32",
          "name": "s",
          "type": "bytes32"
        }
      ],
      "name": "permit",
      "outputs": [],
      "stateMutability": "nonpayable",
      "type": "function"
    },
    {
      "inputs": [],
      "name": "symbol",
      "outputs": [
        {
          "internalType": "string",
          "name": "",
          "type": "string"
        }
      ],
      "stateMutability": "view",
      "type": "function"
    },
    {
      "inputs": [],
      "name": "totalSupply",
      "outputs": [
        {
          "internalType": "uint256",
          "name": "",
          "type": "uint256"
        }
      ],
      "stateMutability": "view",
      "type": "function"
    },
    {
      "inputs": [
        {
          "internalType": "address",
          "name": "to",
          "type": "address"
        },
        {
          "internalType": "uint256",
          "name": "value",
          "type": "uint256"
        }
      ],
      "name": "transfer",
      "outputs": [
        {
          "internalType": "bool",
          "name": "",
          "type": "bool"
        }
      ],
      "stateMutability": "nonpayable",
      "type": "function"
    },
    {
      "inputs": [
        {
          "internalType": "address",
          "name": "from",
          "type": "address"
        },
        {
          "internalType": "address",
          "name": "to",
          "type": "address"
        },
        {
          "internalType": "uint256",
          "name": "value",
          "type": "uint256"
        }
      ],
      "name": "transferFrom",
      "outputs": [
        {
          "internalType": "bool",
          "name": "",
          "type": "bool"
        }
      ],
      "stateMutability": "nonpayable",
      "type": "function"
    }
  ],
  "bytecode": "0x6101606040523480156200001257600080fd5b5060405162002c7138038062002c7183398181016040528101906200003891906200073c565b82806040518060400160405280600181526020017f31000000000000000000000000000000000000000000000000000000000000008152508585816003908162000083919062000a21565b50806004908162000095919062000a21565b505050620000ae6005836200018260201b90919060201c565b6101208181525050620000cc6006826200018260201b90919060201c565b6101408181525050818051906020012060e08181525050808051906020012061010081815250504660a081815250506200010b620001da60201b60201c565b608081815250503073ffffffffffffffffffffffffffffffffffffffff1660c08173ffffffffffffffffffffffffffffffffffffffff1681525050505050620001793382600a6200015d919062000c8b565b629896806200016d919062000cdc565b6200023760201b60201c565b50505062000fbf565b6000602083511015620001a857620001a083620002c460201b60201c565b9050620001d4565b82620001ba836200033160201b60201c565b6000019081620001cb919062000a21565b5060ff60001b90505b92915050565b60007f8b73c3c69bb8fe3d512ecc4cf759cc79239f7b179b0ffacaa9a75d522b39400f60e0516101005146306040516020016200021c95949392919062000d98565b60405160208183030381529060405280519060200120905090565b600073ffffffffffffffffffffffffffffffffffffffff168273ffffffffffffffffffffffffffffffffffffffff1603620002ac5760006040517fec442f05000000000000000000000000000000000000000000000000000000008152600401620002a3919062000df5565b60405180910390fd5b620002c0600083836200033b60201b60201c565b5050565b600080829050601f815111156200031457826040517f305a27a90000000000000000000000000000000000000000000000000000000081526004016200030b919062000e64565b60405180910390fd5b805181620003229062000eba565b60001c1760001b915050919050565b6000819050919050565b600073ffffffffffffffffffffffffffffffffffffffff168373ffffffffffffffffffffffffffffffffffffffff16036200039157806002600082825462000384919062000f2a565b9250508190555062000467565b60008060008573ffffffffffffffffffffffffffffffffffffffff1673ffffffffffffffffffffffffffffffffffffffff1681526020019081526020016000205490508181101562000420578381836040517fe450d38c000000000000000000000000000000000000000000000000000000008152600401620004179392919062000f65565b60405180910390fd5b8181036000808673ffffffffffffffffffffffffffffffffffffffff1673ffffffffffffffffffffffffffffffffffffffff16815260200190815260200160002081905550505b600073ffffffffffffffffffffffffffffffffffffffff168273ffffffffffffffffffffffffffffffffffffffff1603620004b25780600260008282540392505081905550620004ff565b806000808473ffffffffffffffffffffffffffffffffffffffff1673ffffffffffffffffffffffffffffffffffffffff168152602001908152602001600020600082825401925050819055505b8173ffffffffffffffffffffffffffffffffffffffff168373ffffffffffffffffffffffffffffffffffffffff167fddf252ad1be2c89b69c2b068fc378daa952ba7f163c4a11628f55a4df523b3ef836040516200055e919062000fa2565b60405180910390a3505050565b6000604051905090565b600080fd5b600080fd5b600080fd5b600080fd5b6000601f19601f8301169050919050565b7f4e487b7100000000000000000000000000000000000000000000000000000000600052604160045260246000fd5b620005d48262000589565b810181811067ffffffffffffffff82111715620005f657620005f56200059a565b5b80604052505050565b60006200060b6200056b565b9050620006198282620005c9565b919050565b600067ffffffffffffffff8211156200063c576200063b6200059a565b5b620006478262000589565b9050602081019050919050565b60005b838110156200067457808201518184015260208101905062000657565b60008484015250505050565b60006200069762000691846200061e565b620005ff565b905082815260208101848484011115620006b657620006b562000584565b5b620006c384828562000654565b509392505050565b600082601f830112620006e357620006e26200057f565b5b8151620006f584826020860162000680565b91505092915050565b600060ff82169050919050565b6200071681620006fe565b81146200072257600080fd5b50565b60008151905062000736816200070b565b92915050565b60008060006060848603121562000758576200075762000575565b5b600084015167ffffffffffffffff8111156200077957620007786200057a565b5b6200078786828701620006cb565b935050602084015167ffffffffffffffff811115620007ab57620007aa6200057a565b5b620007b986828701620006cb565b9250506040620007cc8682870162000725565b9150509250925092565b600081519050919050565b7f4e487b7100000000000000000000000000000000000000000000000000000000600052602260045260246000fd5b600060028204905060018216806200082957607f821691505b6020821081036200083f576200083e620007e1565b5b50919050565b60008190508160005260206000209050919050565b60006020601f8301049050919050565b600082821b905092915050565b600060088302620008a97fffffffffffffffffffffffffffffffffffffffffffffffffffffffffffffffff826200086a565b620008b586836200086a565b95508019841693508086168417925050509392505050565b6000819050919050565b6000819050919050565b600062000902620008fc620008f684620008cd565b620008d7565b620008cd565b9050919050565b6000819050919050565b6200091e83620008e1565b620009366200092d8262000909565b84845462000877565b825550505050565b600090565b6200094d6200093e565b6200095a81848462000913565b505050565b5b8181101562000982576200097660008262000943565b60018101905062000960565b5050565b601f821115620009d1576200099b8162000845565b620009a6846200085a565b81016020851015620009b6578190505b620009ce620009c5856200085a565b8301826200095f565b50505b505050565b600082821c905092915050565b6000620009f660001984600802620009d6565b1980831691505092915050565b600062000a118383620009e3565b9150826002028217905092915050565b62000a2c82620007d6565b67ffffffffffffffff81111562000a485762000a476200059a565b5b62000a54825462000810565b62000a6182828562000986565b600060209050601f83116001811462000a99576000841562000a84578287015190505b62000a90858262000a03565b86555062000b00565b601f19841662000aa98662000845565b60005b8281101562000ad35784890151825560018201915060208501945060208101905062000aac565b8683101562000af3578489015162000aef601f891682620009e3565b8355505b6001600288020188555050505b505050505050565b7f4e487b7100000000000000000000000000000000000000000000000000000000600052601160045260246000fd5b60008160011c9050919050565b6000808291508390505b600185111562000b965780860481111562000b6e5762000b6d62000b08565b5b600185161562000b7e5780820291505b808102905062000b8e8562000b37565b945062000b4e565b94509492505050565b60008262000bb1576001905062000c84565b8162000bc1576000905062000c84565b816001811462000bda576002811462000be55762000c1b565b600191505062000c84565b60ff84111562000bfa5762000bf962000b08565b5b8360020a91508482111562000c145762000c1362000b08565b5b5062000c84565b5060208310610133831016604e8410600b841016171562000c555782820a90508381111562000c4f5762000c4e62000b08565b5b62000c84565b62000c64848484600162000b44565b9250905081840481111562000c7e5762000c7d62000b08565b5b81810290505b9392505050565b600062000c9882620008cd565b915062000ca583620006fe565b925062000cd47fffffffffffffffffffffffffffffffffffffffffffffffffffffffffffffffff848462000b9f565b905092915050565b600062000ce982620008cd565b915062000cf683620008cd565b925082820262000d0681620008cd565b9150828204841483151762000d205762000d1f62000b08565b5b5092915050565b6000819050919050565b62000d3c8162000d27565b82525050565b62000d4d81620008cd565b82525050565b600073ffffffffffffffffffffffffffffffffffffffff82169050919050565b600062000d808262000d53565b9050919050565b62000d928162000d73565b82525050565b600060a08201905062000daf600083018862000d31565b62000dbe602083018762000d31565b62000dcd604083018662000d31565b62000ddc606083018562000d42565b62000deb608083018462000d87565b9695505050505050565b600060208201905062000e0c600083018462000d87565b92915050565b600082825260208201905092915050565b600062000e3082620007d6565b62000e3c818562000e12565b935062000e4e81856020860162000654565b62000e598162000589565b840191505092915050565b6000602082019050818103600083015262000e80818462000e23565b905092915050565b600081519050919050565b6000819050602082019050919050565b600062000eb1825162000d27565b80915050919050565b600062000ec78262000e88565b8262000ed38462000e93565b905062000ee08162000ea3565b9250602082101562000f235762000f1e7fffffffffffffffffffffffffffffffffffffffffffffffffffffffffffffffff836020036008026200086a565b831692505b5050919050565b600062000f3782620008cd565b915062000f4483620008cd565b925082820190508082111562000f5f5762000f5e62000b08565b5b92915050565b600060608201905062000f7c600083018662000d87565b62000f8b602083018562000d42565b62000f9a604083018462000d42565b949350505050565b600060208201905062000fb9600083018462000d42565b92915050565b60805160a05160c05160e051610100516101205161014051611c576200101a6000396000610a7e01526000610a4301526000610f9301526000610f720152600061093e01526000610994015260006109bd0152611c576000f3fe608060405234801561001057600080fd5b50600436106100ea5760003560e01c806370a082311161008c57806395d89b411161006657806395d89b4114610269578063a9059cbb14610287578063d505accf146102b7578063dd62ed3e146102d3576100ea565b806370a08231146101e55780637ecebe001461021557806384b0196e14610245576100ea565b806323b872dd116100c857806323b872dd1461015b578063313ce5671461018b5780633644e515146101a9578063378dc3dc146101c7576100ea565b806306fdde03146100ef578063095ea7b31461010d57806318160ddd1461013d575b600080fd5b6100f7610303565b6040516101049190611480565b60405180910390f35b6101276004803603810190610122919061153b565b610395565b6040516101349190611596565b60405180910390f35b6101456103b8565b60405161015291906115c0565b60405180910390f35b610175600480360381019061017091906115db565b6103c2565b6040516101829190611596565b60405180910390f35b6101936103f1565b6040516101a0919061164a565b60405180910390f35b6101b16103fa565b6040516101be919061167e565b60405180910390f35b6101cf610409565b6040516101dc91906115c0565b60405180910390f35b6101ff60048036038101906101fa9190611699565b610410565b60405161020c91906115c0565b60405180910390f35b61022f600480360381019061022a9190611699565b610458565b60405161023c91906115c0565b60405180910390f35b61024d61046a565b60405161026097969594939291906117ce565b60405180910390f35b610271610514565b60405161027e9190611480565b60405180910390f35b6102a1600480360381019061029c919061153b565b6105a6565b6040516102ae9190611596565b60405180910390f35b6102d160048036038101906102cc91906118aa565b6105c9565b005b6102ed60048036038101906102e8919061194c565b610711565b6040516102fa91906115c0565b60405180910390f35b606060038054610312906119bb565b80601f016020809104026020016040519081016040528092919081815260200182805461033e906119bb565b801561038b5780601f106103605761010080835404028352916020019161038b565b820191906000526020600020905b81548152906001019060200180831161036e57829003601f168201915b5050505050905090565b6000806103a0610798565b90506103ad8185856107a0565b600191505092915050565b6000600254905090565b6000806103cd610798565b90506103da8582856107b2565b6103e5858585610846565b60019150509392505050565b60006012905090565b600061040461093a565b905090565b6298968081565b60008060008373ffffffffffffffffffffffffffffffffffffffff1673ffffffffffffffffffffffffffffffffffffffff168152602001908152602001600020549050919050565b6000610463826109f1565b9050919050565b60006060806000806000606061047e610a3a565b610486610a75565b46306000801b600067ffffffffffffffff8111156104a7576104a66119ec565b5b6040519080825280602002602001820160405280156104d55781602001602082028036833780820191505090505b507f0f00000000000000000000000000000000000000000000000000000000000000959493929190965096509650965096509650965090919293949596565b606060048054610523906119bb565b80601f016020809104026020016040519081016040528092919081815260200182805461054f906119bb565b801561059c5780601f106105715761010080835404028352916020019161059c565b820191906000526020600020905b81548152906001019060200180831161057f57829003601f168201915b5050505050905090565b6000806105b1610798565b90506105be818585610846565b600191505092915050565b8342111561060e57836040517f6279130200000000000000000000000000000000000000000000000000000000815260040161060591906115c0565b60405180910390fd5b60007f6e71edae12b1b97f4d1f60370fef10105fa2faae0126114a169c64845d6126c988888861063d8c610ab0565b8960405160200161065396959493929190611a1b565b604051602081830303815290604052805190602001209050600061067682610b07565b9050600061068682878787610b21565b90508973ffffffffffffffffffffffffffffffffffffffff168173ffffffffffffffffffffffffffffffffffffffff16146106fa57808a6040517f4b800e460000000000000000000000000000000000000000000000000000000081526004016106f1929190611a7c565b60405180910390fd5b6107058a8a8a6107a0565b50505050505050505050565b6000600160008473ffffffffffffffffffffffffffffffffffffffff1673ffffffffffffffffffffffffffffffffffffffff16815260200190815260200160002060008373ffffffffffffffffffffffffffffffffffffffff1673ffffffffffffffffffffffffffffffffffffffff16815260200190815260200160002054905092915050565b600033905090565b6107ad8383836001610b51565b505050565b60006107be8484610711565b90507fffffffffffffffffffffffffffffffffffffffffffffffffffffffffffffffff81146108405781811015610830578281836040517ffb8f41b200000000000000000000000000000000000000000000000000000000815260040161082793929190611aa5565b60405180910390fd5b61083f84848484036000610b51565b5b50505050565b600073ffffffffffffffffffffffffffffffffffffffff168373ffffffffffffffffffffffffffffffffffffffff16036108b85760006040517f96c6fd1e0000000000000000000000000000000000000000000000000000000081526004016108af9190611adc565b60405180910390fd5b600073ffffffffffffffffffffffffffffffffffffffff168273ffffffffffffffffffffffffffffffffffffffff160361092a5760006040517fec442f050000000000000000000000000000000000000000000000000000000081526004016109219190611adc565b60405180910390fd5b610935838383610d28565b505050565b60007f000000000000000000000000000000000000000000000000000000000000000073ffffffffffffffffffffffffffffffffffffffff163073ffffffffffffffffffffffffffffffffffffffff161480156109b657507f000000000000000000000000000000000000000000000000000000000000000046145b156109e3577f000000000000000000000000000000000000000000000000000000000000000090506109ee565b6109eb610f4d565b90505b90565b6000600760008373ffffffffffffffffffffffffffffffffffffffff1673ffffffffffffffffffffffffffffffffffffffff168152602001908152602001600020549050919050565b6060610a7060057f0000000000000000000000000000000000000000000000000000000000000000610fe390919063ffffffff16565b905090565b6060610aab60067f0000000000000000000000000000000000000000000000000000000000000000610fe390919063ffffffff16565b905090565b6000600760008373ffffffffffffffffffffffffffffffffffffffff1673ffffffffffffffffffffffffffffffffffffffff1681526020019081526020016000206000815480929190600101919050559050919050565b6000610b1a610b1461093a565b83611093565b9050919050565b600080600080610b33888888886110d4565b925092509250610b4382826111c8565b829350505050949350505050565b600073ffffffffffffffffffffffffffffffffffffffff168473ffffffffffffffffffffffffffffffffffffffff1603610bc35760006040517fe602df05000000000000000000000000000000000000000000000000000000008152600401610bba9190611adc565b60405180910390fd5b600073ffffffffffffffffffffffffffffffffffffffff168373ffffffffffffffffffffffffffffffffffffffff1603610c355760006040517f94280d62000000000000000000000000000000000000000000000000000000008152600401610c2c9190611adc565b60405180910390fd5b81600160008673ffffffffffffffffffffffffffffffffffffffff1673ffffffffffffffffffffffffffffffffffffffff16815260200190815260200160002060008573ffffffffffffffffffffffffffffffffffffffff1673ffffffffffffffffffffffffffffffffffffffff168152602001908152602001600020819055508015610d22578273ffffffffffffffffffffffffffffffffffffffff168473ffffffffffffffffffffffffffffffffffffffff167f8c5be1e5ebec7d5bd14f71427d1e84f3dd0314c0f7b2291e5b200ac8c7c3b92584604051610d1991906115c0565b60405180910390a35b50505050565b600073ffffffffffffffffffffffffffffffffffffffff168373ffffffffffffffffffffffffffffffffffffffff1603610d7a578060026000828254610d6e9190611b26565b92505081905550610e4d565b60008060008573ffffffffffffffffffffffffffffffffffffffff1673ffffffffffffffffffffffffffffffffffffffff16815260200190815260200160002054905081811015610e06578381836040517fe450d38c000000000000000000000000000000000000000000000000000000008152600401610dfd93929190611aa5565b60405180910390fd5b8181036000808673ffffffffffffffffffffffffffffffffffffffff1673ffffffffffffffffffffffffffffffffffffffff16815260200190815260200160002081905550505b600073ffffffffffffffffffffffffffffffffffffffff168273ffffffffffffffffffffffffffffffffffffffff1603610e965780600260008282540392505081905550610ee3565b806000808473ffffffffffffffffffffffffffffffffffffffff1673ffffffffffffffffffffffffffffffffffffffff168152602001908152602001600020600082825401925050819055505b8173ffffffffffffffffffffffffffffffffffffffff168373ffffffffffffffffffffffffffffffffffffffff167fddf252ad1be2c89b69c2b068fc378daa952ba7f163c4a11628f55a4df523b3ef83604051610f4091906115c0565b60405180910390a3505050565b60007f8b73c3c69bb8fe3d512ecc4cf759cc79239f7b179b0ffacaa9a75d522b39400f7f00000000000000000000000000000000000000000000000000000000000000007f00000000000000000000000000000000000000000000000000000000000000004630604051602001610fc8959493929190611b5a565b60405160208183030381529060405280519060200120905090565b606060ff60001b831461100057610ff98361132c565b905061108d565b81805461100c906119bb565b80601f0160208091040260200160405190810160405280929190818152602001828054611038906119bb565b80156110855780601f1061105a57610100808354040283529160200191611085565b820191906000526020600020905b81548152906001019060200180831161106857829003601f168201915b505050505090505b92915050565b60006040517f190100000000000000000000000000000000000000000000000000000000000081528360028201528260228201526042812091505092915050565b60008060007f7fffffffffffffffffffffffffffffff5d576e7357a4501ddfe92f46681b20a08460001c11156111145760006003859250925092506111be565b6000600188888888604051600081526020016040526040516111399493929190611bad565b6020604051602081039080840390855afa15801561115b573d6000803e3d6000fd5b505050602060405103519050600073ffffffffffffffffffffffffffffffffffffffff168173ffffffffffffffffffffffffffffffffffffffff16036111af57600060016000801b935093509350506111be565b8060008060001b935093509350505b9450945094915050565b600060038111156111dc576111db611bf2565b5b8260038111156111ef576111ee611bf2565b5b0315611328576001600381111561120957611208611bf2565b5b82600381111561121c5761121b611bf2565b5b03611253576040517ff645eedf00000000000000000000000000000000000000000000000000000000815260040160405180910390fd5b6002600381111561126757611266611bf2565b5b82600381111561127a57611279611bf2565b5b036112bf578060001c6040517ffce698f70000000000000000000000000000000000000000000000000000000081526004016112b691906115c0565b60405180910390fd5b6003808111156112d2576112d1611bf2565b5b8260038111156112e5576112e4611bf2565b5b0361132757806040517fd78bce0c00000000000000000000000000000000000000000000000000000000815260040161131e919061167e565b60405180910390fd5b5b5050565b60606000611339836113a0565b90506000602067ffffffffffffffff811115611358576113576119ec565b5b6040519080825280601f01601f19166020018201604052801561138a5781602001600182028036833780820191505090505b5090508181528360208201528092505050919050565b60008060ff8360001c169050601f8111156113e7576040517fb3512b0c00000000000000000000000000000000000000000000000000000000815260040160405180910390fd5b80915050919050565b600081519050919050565b600082825260208201905092915050565b60005b8381101561142a57808201518184015260208101905061140f565b60008484015250505050565b6000601f19601f8301169050919050565b6000611452826113f0565b61145c81856113fb565b935061146c81856020860161140c565b61147581611436565b840191505092915050565b6000602082019050818103600083015261149a8184611447565b905092915050565b600080fd5b600073ffffffffffffffffffffffffffffffffffffffff82169050919050565b60006114d2826114a7565b9050919050565b6114e2816114c7565b81146114ed57600080fd5b50565b6000813590506114ff816114d9565b92915050565b6000819050919050565b61151881611505565b811461152357600080fd5b50565b6000813590506115358161150f565b92915050565b60008060408385031215611552576115516114a2565b5b6000611560858286016114f0565b925050602061157185828601611526565b9150509250929050565b60008115159050919050565b6115908161157b565b82525050565b60006020820190506115ab6000830184611587565b92915050565b6115ba81611505565b82525050565b60006020820190506115d560008301846115b1565b92915050565b6000806000606084860312156115f4576115f36114a2565b5b6000611602868287016114f0565b9350506020611613868287016114f0565b925050604061162486828701611526565b9150509250925092565b600060ff82169050919050565b6116448161162e565b82525050565b600060208201905061165f600083018461163b565b92915050565b6000819050919050565b61167881611665565b82525050565b6000602082019050611693600083018461166f565b92915050565b6000602082840312156116af576116ae6114a2565b5b60006116bd848285016114f0565b91505092915050565b60007fff0000000000000000000000000000000000000000000000000000000000000082169050919050565b6116fb816116c6565b82525050565b61170a816114c7565b82525050565b600081519050919050565b600082825260208201905092915050565b6000819050602082019050919050565b61174581611505565b82525050565b6000611757838361173c565b60208301905092915050565b6000602082019050919050565b600061177b82611710565b611785818561171b565b93506117908361172c565b8060005b838110156117c15781516117a8888261174b565b97506117b383611763565b925050600181019050611794565b5085935050505092915050565b600060e0820190506117e3600083018a6116f2565b81810360208301526117f58189611447565b905081810360408301526118098188611447565b905061181860608301876115b1565b6118256080830186611701565b61183260a083018561166f565b81810360c08301526118448184611770565b905098975050505050505050565b61185b8161162e565b811461186657600080fd5b50565b60008135905061187881611852565b92915050565b61188781611665565b811461189257600080fd5b50565b6000813590506118a48161187e565b92915050565b600080600080600080600060e0888a0312156118c9576118c86114a2565b5b60006118d78a828b016114f0565b97505060206118e88a828b016114f0565b96505060406118f98a828b01611526565b955050606061190a8a828b01611526565b945050608061191b8a828b01611869565b93505060a061192c8a828b01611895565b92505060c061193d8a828b01611895565b91505092959891949750929550565b60008060408385031215611963576119626114a2565b5b6000611971858286016114f0565b9250506020611982858286016114f0565b9150509250929050565b7f4e487b7100000000000000000000000000000000000000000000000000000000600052602260045260246000fd5b600060028204905060018216806119d357607f821691505b6020821081036119e6576119e561198c565b5b50919050565b7f4e487b7100000000000000000000000000000000000000000000000000000000600052604160045260246000fd5b600060c082019050611a30600083018961166f565b611a3d6020830188611701565b611a4a6040830187611701565b611a5760608301866115b1565b611a6460808301856115b1565b611a7160a08301846115b1565b979650505050505050565b6000604082019050611a916000830185611701565b611a9e6020830184611701565b9392505050565b6000606082019050611aba6000830186611701565b611ac760208301856115b1565b611ad460408301846115b1565b949350505050565b6000602082019050611af16000830184611701565b92915050565b7f4e487b7100000000000000000000000000000000000000000000000000000000600052601160045260246000fd5b6000611b3182611505565b9150611b3c83611505565b9250828201905080821115611b5457611b53611af7565b5b92915050565b600060a082019050611b6f600083018861166f565b611b7c602083018761166f565b611b89604083018661166f565b611b9660608301856115b1565b611ba36080830184611701565b9695505050505050565b6000608082019050611bc2600083018761166f565b611bcf602083018661163b565b611bdc604083018561166f565b611be9606083018461166f565b95945050505050565b7f4e487b7100000000000000000000000000000000000000000000000000000000600052602160045260246000fdfea26469706673582212203a862a066b3c37e8bbd8a0e0423b8d01b0f1b4408f851ba9a8b4e08f24656ac264736f6c63430008140033",
  "linkReferences": {},
  "deployedLinkReferences": {}
}